{
  "contractName": "StakingTKN",
  "abi": [
    {
      "inputs": [
        {
          "internalType": "uint256",
          "name": "_tokenNumber",
          "type": "uint256"
        }
      ],
      "stateMutability": "nonpayable",
      "type": "constructor"
    },
    {
      "inputs": [],
      "name": "owner",
      "outputs": [
        {
          "internalType": "address",
          "name": "",
          "type": "address"
        }
      ],
      "stateMutability": "view",
      "type": "function",
      "constant": true
    },
    {
      "inputs": [
        {
          "internalType": "uint256",
          "name": "_tokenAmount",
          "type": "uint256"
        }
      ],
      "name": "stake",
      "outputs": [],
      "stateMutability": "nonpayable",
      "type": "function"
    },
    {
      "inputs": [
        {
          "internalType": "uint256",
          "name": "_tokenAmount",
          "type": "uint256"
        }
      ],
      "name": "withdrawStake",
      "outputs": [],
      "stateMutability": "nonpayable",
      "type": "function"
    },
    {
      "inputs": [],
      "name": "getTotalStakeData",
      "outputs": [
        {
          "internalType": "uint256",
          "name": "",
          "type": "uint256"
        }
      ],
      "stateMutability": "view",
      "type": "function",
      "constant": true
    },
    {
      "inputs": [],
      "name": "getPersonalStakeData",
      "outputs": [
        {
          "internalType": "uint256",
          "name": "",
          "type": "uint256"
        }
      ],
      "stateMutability": "view",
      "type": "function",
      "constant": true
    },
    {
      "inputs": [],
      "name": "calculateRewards",
      "outputs": [],
      "stateMutability": "nonpayable",
      "type": "function"
    },
    {
      "inputs": [],
      "name": "getReward",
      "outputs": [
        {
          "internalType": "uint256",
          "name": "",
          "type": "uint256"
        }
      ],
      "stateMutability": "view",
      "type": "function",
      "constant": true
    }
  ],
  "bytecode": "0x60806040526001600460146101000a81548160ff0219169083151502179055503480156200002c57600080fd5b506040516200152038038062001520833981810160405281019062000052919062000280565b33600460006101000a81548173ffffffffffffffffffffffffffffffffffffffff021916908373ffffffffffffffffffffffffffffffffffffffff160217905550620000a4816200015160201b60201c565b806000803373ffffffffffffffffffffffffffffffffffffffff1673ffffffffffffffffffffffffffffffffffffffff168152602001908152602001600020819055506002339080600181540180825580915050600190039060005260206000200160009091909190916101000a81548173ffffffffffffffffffffffffffffffffffffffff021916908373ffffffffffffffffffffffffffffffffffffffff160217905550506200045c565b600460009054906101000a900473ffffffffffffffffffffffffffffffffffffffff1673ffffffffffffffffffffffffffffffffffffffff163373ffffffffffffffffffffffffffffffffffffffff1614620001e4576040517f08c379a0000000000000000000000000000000000000000000000000000000008152600401620001db9062000322565b60405180910390fd5b80600081116200022b576040517f08c379a0000000000000000000000000000000000000000000000000000000008152600401620002229062000300565b60405180910390fd5b62000247826003546200025160201b62000ab41790919060201c565b6003819055505050565b6000818362000261919062000355565b905092915050565b6000815190506200027a8162000442565b92915050565b600060208284031215620002995762000298620003eb565b5b6000620002a98482850162000269565b91505092915050565b6000620002c160158362000344565b9150620002ce82620003f0565b602082019050919050565b6000620002e860158362000344565b9150620002f58262000419565b602082019050919050565b600060208201905081810360008301526200031b81620002b2565b9050919050565b600060208201905081810360008301526200033d81620002d9565b9050919050565b600082825260208201905092915050565b60006200036282620003b2565b91506200036f83620003b2565b9250827fffffffffffffffffffffffffffffffffffffffffffffffffffffffffffffffff03821115620003a757620003a6620003bc565b5b828201905092915050565b6000819050919050565b7f4e487b7100000000000000000000000000000000000000000000000000000000600052601160045260246000fd5b600080fd5b7f4d75737420626520626967676572207468616e20300000000000000000000000600082015250565b7f596f7520617265206e6f7420746865206f776e65720000000000000000000000600082015250565b6200044d81620003b2565b81146200045957600080fd5b50565b6110b4806200046c6000396000f3fe608060405234801561001057600080fd5b506004361061007d5760003560e01c80638da5cb5b1161005b5780638da5cb5b146100c657806397f50737146100e4578063a694fc3a14610102578063d28ea3401461011e5761007d565b806325d5971f146100825780633d18b9121461009e5780633e50de30146100bc575b600080fd5b61009c60048036038101906100979190610bfe565b61013c565b005b6100a6610570565b6040516100b39190610d70565b60405180910390f35b6100c461063b565b005b6100ce6107d8565b6040516100db9190610cd5565b60405180910390f35b6100ec6107fe565b6040516100f99190610d70565b60405180910390f35b61011c60048036038101906101179190610bfe565b610808565b005b6101266109ea565b6040516101339190610d70565b60405180910390f35b3360008060008373ffffffffffffffffffffffffffffffffffffffff1673ffffffffffffffffffffffffffffffffffffffff1681526020019081526020016000205414156101bf576040517f08c379a00000000000000000000000000000000000000000000000000000000081526004016101b690610d50565b60405180910390fd5b8160008111610203576040517f08c379a00000000000000000000000000000000000000000000000000000000081526004016101fa90610cf0565b60405180910390fd5b33836000808373ffffffffffffffffffffffffffffffffffffffff1673ffffffffffffffffffffffffffffffffffffffff16815260200190815260200160002054811115610286576040517f08c379a000000000000000000000000000000000000000000000000000000000815260040161027d90610d30565b60405180910390fd5b6000803373ffffffffffffffffffffffffffffffffffffffff1673ffffffffffffffffffffffffffffffffffffffff168152602001908152602001600020548514156104ba576102e185600354610aca90919063ffffffff16565b60038190555060008060003373ffffffffffffffffffffffffffffffffffffffff1673ffffffffffffffffffffffffffffffffffffffff1681526020019081526020016000208190555060005b6002805490508110156104b4573373ffffffffffffffffffffffffffffffffffffffff166002828154811061036657610365610f69565b5b9060005260206000200160009054906101000a900473ffffffffffffffffffffffffffffffffffffffff1673ffffffffffffffffffffffffffffffffffffffff1614156104a157600260016002805490506103c19190610e23565b815481106103d2576103d1610f69565b5b9060005260206000200160009054906101000a900473ffffffffffffffffffffffffffffffffffffffff166002828154811061041157610410610f69565b5b9060005260206000200160006101000a81548173ffffffffffffffffffffffffffffffffffffffff021916908373ffffffffffffffffffffffffffffffffffffffff160217905550600280548061046b5761046a610f3a565b5b6001900381819060005260206000200160006101000a81549073ffffffffffffffffffffffffffffffffffffffff021916905590555b80806104ac90610e93565b91505061032e565b50610569565b6104cf85600354610aca90919063ffffffff16565b600381905550610526856000803373ffffffffffffffffffffffffffffffffffffffff1673ffffffffffffffffffffffffffffffffffffffff16815260200190815260200160002054610aca90919063ffffffff16565b6000803373ffffffffffffffffffffffffffffffffffffffff1673ffffffffffffffffffffffffffffffffffffffff168152602001908152602001600020819055505b5050505050565b60003360008060008373ffffffffffffffffffffffffffffffffffffffff1673ffffffffffffffffffffffffffffffffffffffff1681526020019081526020016000205414156105f5576040517f08c379a00000000000000000000000000000000000000000000000000000000081526004016105ec90610d50565b60405180910390fd5b600160003373ffffffffffffffffffffffffffffffffffffffff1673ffffffffffffffffffffffffffffffffffffffff1681526020019081526020016000205491505090565b600460009054906101000a900473ffffffffffffffffffffffffffffffffffffffff1673ffffffffffffffffffffffffffffffffffffffff163373ffffffffffffffffffffffffffffffffffffffff16146106cb576040517f08c379a00000000000000000000000000000000000000000000000000000000081526004016106c290610d10565b60405180910390fd5b60005b6002805490508110156107d5576000600282815481106106f1576106f0610f69565b5b9060005260206000200160009054906101000a900473ffffffffffffffffffffffffffffffffffffffff169050600061072982610ae0565b905061077d81600160008573ffffffffffffffffffffffffffffffffffffffff1673ffffffffffffffffffffffffffffffffffffffff16815260200190815260200160002054610ab490919063ffffffff16565b600160008473ffffffffffffffffffffffffffffffffffffffff1673ffffffffffffffffffffffffffffffffffffffff16815260200190815260200160002081905550505080806107cd90610e93565b9150506106ce565b50565b600460009054906101000a900473ffffffffffffffffffffffffffffffffffffffff1681565b6000600354905090565b806000811161084c576040517f08c379a000000000000000000000000000000000000000000000000000000000815260040161084390610cf0565b60405180910390fd5b61085533610b34565b60011515600460149054906101000a900460ff161515141561093757816000803373ffffffffffffffffffffffffffffffffffffffff1673ffffffffffffffffffffffffffffffffffffffff168152602001908152602001600020819055506002339080600181540180825580915050600190039060005260206000200160009091909190916101000a81548173ffffffffffffffffffffffffffffffffffffffff021916908373ffffffffffffffffffffffffffffffffffffffff16021790555061092c82600354610ab490919063ffffffff16565b6003819055506109e6565b610988826000803373ffffffffffffffffffffffffffffffffffffffff1673ffffffffffffffffffffffffffffffffffffffff16815260200190815260200160002054610ab490919063ffffffff16565b6000803373ffffffffffffffffffffffffffffffffffffffff1673ffffffffffffffffffffffffffffffffffffffff168152602001908152602001600020819055506109df82600354610ab490919063ffffffff16565b6003819055505b5050565b60003360008060008373ffffffffffffffffffffffffffffffffffffffff1673ffffffffffffffffffffffffffffffffffffffff168152602001908152602001600020541415610a6f576040517f08c379a0000000000000000000000000000000000000000000000000000000008152600401610a6690610d50565b60405180910390fd5b6000803373ffffffffffffffffffffffffffffffffffffffff1673ffffffffffffffffffffffffffffffffffffffff1681526020019081526020016000205491505090565b60008183610ac29190610d9c565b905092915050565b60008183610ad89190610e23565b905092915050565b600060646000808473ffffffffffffffffffffffffffffffffffffffff1673ffffffffffffffffffffffffffffffffffffffff16815260200190815260200160002054610b2d9190610df2565b9050919050565b60005b600280549050811015610be5578173ffffffffffffffffffffffffffffffffffffffff1660028281548110610b6f57610b6e610f69565b5b9060005260206000200160009054906101000a900473ffffffffffffffffffffffffffffffffffffffff1673ffffffffffffffffffffffffffffffffffffffff161415610bd2576000600460146101000a81548160ff0219169083151502179055505b8080610bdd90610e93565b915050610b37565b5050565b600081359050610bf881611067565b92915050565b600060208284031215610c1457610c13610f98565b5b6000610c2284828501610be9565b91505092915050565b610c3481610e57565b82525050565b6000610c47601583610d8b565b9150610c5282610f9d565b602082019050919050565b6000610c6a601583610d8b565b9150610c7582610fc6565b602082019050919050565b6000610c8d602583610d8b565b9150610c9882610fef565b604082019050919050565b6000610cb0601383610d8b565b9150610cbb8261103e565b602082019050919050565b610ccf81610e89565b82525050565b6000602082019050610cea6000830184610c2b565b92915050565b60006020820190508181036000830152610d0981610c3a565b9050919050565b60006020820190508181036000830152610d2981610c5d565b9050919050565b60006020820190508181036000830152610d4981610c80565b9050919050565b60006020820190508181036000830152610d6981610ca3565b9050919050565b6000602082019050610d856000830184610cc6565b92915050565b600082825260208201905092915050565b6000610da782610e89565b9150610db283610e89565b9250827fffffffffffffffffffffffffffffffffffffffffffffffffffffffffffffffff03821115610de757610de6610edc565b5b828201905092915050565b6000610dfd82610e89565b9150610e0883610e89565b925082610e1857610e17610f0b565b5b828204905092915050565b6000610e2e82610e89565b9150610e3983610e89565b925082821015610e4c57610e4b610edc565b5b828203905092915050565b6000610e6282610e69565b9050919050565b600073ffffffffffffffffffffffffffffffffffffffff82169050919050565b6000819050919050565b6000610e9e82610e89565b91507fffffffffffffffffffffffffffffffffffffffffffffffffffffffffffffffff821415610ed157610ed0610edc565b5b600182019050919050565b7f4e487b7100000000000000000000000000000000000000000000000000000000600052601160045260246000fd5b7f4e487b7100000000000000000000000000000000000000000000000000000000600052601260045260246000fd5b7f4e487b7100000000000000000000000000000000000000000000000000000000600052603160045260246000fd5b7f4e487b7100000000000000000000000000000000000000000000000000000000600052603260045260246000fd5b600080fd5b7f4d75737420626520626967676572207468616e20300000000000000000000000600082015250565b7f596f7520617265206e6f7420746865206f776e65720000000000000000000000600082015250565b7f5769746864726177616c206d75737420626520736d616c6c6572207468616e2060008201527f5374616b65000000000000000000000000000000000000000000000000000000602082015250565b7f7374616b6520646f65736e6f7420657869737400000000000000000000000000600082015250565b61107081610e89565b811461107b57600080fd5b5056fea26469706673582212205fac2aa3b3681809d88e1076585d819d3c29352d0380e58883364265bb74042e64736f6c63430008070033",
  "immutableReferences": {},
  "source": "//SPDX-License-Identifier: GPL-3.0\r\n\r\npragma solidity >=0.8.7;\r\n\r\nimport \"./SafeMath.sol\";\r\n\r\ncontract StakingTKN {\r\n    \r\n    //safemath libray is used to prevent uint overflows.\r\n    using SafeMath for uint256;\r\n\r\n    //Mapping to record how much stake an address has deposited.\r\n    //Mapping to record how much rewards an address has(in wei).\r\n    mapping(address => uint256) internal stakes;\r\n    mapping(address => uint256) internal rewards;\r\n    address[] internal stakeholders;\r\n    uint256 internal numberOfTokens;\r\n\r\n\r\n    //an owner will be defined. The owner will set how many tokens to issue, \r\n    //and he/she will also distribute the rewards manually.\r\n    //Owner is also a stakeholder. Thats why it is added to the array and mapping.\r\n    address public owner;\r\n\r\n    constructor(uint256 _tokenNumber) {\r\n        owner = msg.sender;\r\n        mint(_tokenNumber);\r\n        stakes[msg.sender] = _tokenNumber;\r\n        stakeholders.push(msg.sender);\r\n    }\r\n\r\n    //onlyOwner modifier will be used for making sure the account supplying initial tokens is owner.\r\n    //isStakeholder modifier will be used for making sure the account withdrawing stakes are stakeholders.\r\n    //stakeholders must have stakes bigger than 0. That's why we set the condition accordingly.\r\n    modifier onlyOwner(){\r\n        require(msg.sender == owner, \"You are not the owner\");\r\n        _;\r\n    }\r\n    modifier isStakeholder(address _stakeholder){\r\n        require(stakes[_stakeholder] != 0, \"stake doesnot exist\");\r\n        _;\r\n    }\r\n    modifier isZero(uint256 _tokenAmount) {\r\n        require(_tokenAmount > 0, \"Must be bigger than 0\");\r\n        _;\r\n    }\r\n    //this modifier is used with withdraw function to make sure msg.sender cannot withdraw \r\n    //more than it staked.\r\n    modifier isBigger(address _stakeholder, uint256 _tokenAmount){\r\n        require(_tokenAmount <= stakes[_stakeholder], \"Withdrawal must be smaller than Stake\");\r\n        _; \r\n    }\r\n\r\n    //Here the owner of the contract, deposits a primary amount of tokens to the contract.\r\n    //We can also view this step as \"minting\" for simplicity.\r\n    function mint(uint256 _tokenNumber) internal onlyOwner isZero(_tokenNumber) {\r\n        numberOfTokens = numberOfTokens.add(_tokenNumber);\r\n    }\r\n\r\n    //STAKING FUNCTION PART\r\n    //First newUser bool will store the result of checkUser function.\r\n    //checkUser function will see if the staking address is new or existing. \r\n    //This bool data will then be used inside the stake function.\r\n    bool internal newUser = true;\r\n    function checkUser(address _a) internal {\r\n        for(uint256 i = 0; i<stakeholders.length; i++) {\r\n            if(stakeholders[i] == _a) {\r\n                newUser = false;\r\n            }\r\n        }\r\n    }\r\n    function stake(uint256 _tokenAmount) public isZero(_tokenAmount) {\r\n        checkUser(msg.sender);\r\n        if(newUser == true) {\r\n            stakes[msg.sender] = _tokenAmount;\r\n            stakeholders.push(msg.sender);\r\n            numberOfTokens = numberOfTokens.add(_tokenAmount);\r\n        } else {\r\n            stakes[msg.sender] = stakes[msg.sender].add(_tokenAmount);\r\n            numberOfTokens = numberOfTokens.add(_tokenAmount);\r\n        }\r\n    }\r\n\r\n    //In withdraw function, I make sure if msg.sender is a stakeholder and if he is withdrawing more than zero.\r\n    //Later I am updating main state variables.\r\n    function withdrawStake(uint256 _tokenAmount) public isStakeholder(msg.sender) isZero(_tokenAmount) isBigger(msg.sender, _tokenAmount){\r\n        if(_tokenAmount == stakes[msg.sender]) {\r\n            //here a transfer function will be used.\r\n            numberOfTokens = numberOfTokens.sub(_tokenAmount);\r\n            stakes[msg.sender] = 0;\r\n            for(uint256 i = 0; i<stakeholders.length; i++){\r\n                if(stakeholders[i] == msg.sender) {\r\n                    stakeholders[i] = stakeholders[stakeholders.length - 1];\r\n                    stakeholders.pop();\r\n                }\r\n            }\r\n        } else {\r\n            numberOfTokens = numberOfTokens.sub(_tokenAmount);\r\n            stakes[msg.sender] = stakes[msg.sender].sub(_tokenAmount);\r\n        }\r\n    }\r\n\r\n\r\n    //Read functions to see individual and total amount of stakes.\r\n    function getTotalStakeData() public view returns(uint256) {\r\n        return numberOfTokens;\r\n    }\r\n\r\n    function getPersonalStakeData() public view isStakeholder(msg.sender) returns(uint256) {\r\n        return stakes[msg.sender];\r\n    }\r\n\r\n\r\n    //REWARDING PART 1\r\n    // calculateReward will calculate a single stake's reward.\r\n    //calculateRewards will calculate rewards for all stakes. The owner of the contract\r\n    //will manually call this function to make contract less complex.\r\n    function calculateReward(address _stakeholder) internal view returns(uint256) {\r\n        return stakes[_stakeholder]/100;\r\n    }\r\n\r\n    function calculateRewards() public onlyOwner {\r\n        for(uint256 i = 0; i < stakeholders.length; i++) {\r\n            address stakeholder = stakeholders[i];\r\n            uint256 reward = calculateReward(stakeholder);\r\n            rewards[stakeholder] = rewards[stakeholder].add(reward);\r\n        }\r\n    }\r\n\r\n\r\n    //READING REWARDS\r\n    //function returns the reward amount of an individual stake\r\n    function getReward() public view isStakeholder(msg.sender) returns(uint256) {\r\n        return rewards[msg.sender];\r\n    }\r\n\r\n    //There is not a withdraw reward function, as it was not requested by the task paper.\r\n\r\n}\r\n",
  "sourcePath": "C:\\Users\\Abdulhakim\\Desktop\\folder\\0_block\\SOLIDITY-staking\\contracts\\StakingTKN.sol",
  "compiler": {
    "name": "solc",
    "version": "0.8.7+commit.e28d00a7.Emscripten.clang"
  },
  "schemaVersion": "3.4.7",
  "updatedAt": "2022-05-15T14:32:34.847Z",
  "networkType": "ethereum",
  "devdoc": {
    "kind": "dev",
    "methods": {},
    "version": 1
  },
  "userdoc": {
    "kind": "user",
    "methods": {},
    "version": 1
  }
}